{
  "_format": "hh-sol-artifact-1",
  "contractName": "RecallManager",
  "sourceName": "contracts/RecallManager.sol",
  "abi": [
    {
      "inputs": [
        {
          "internalType": "address",
          "name": "admin",
          "type": "address"
        }
      ],
      "stateMutability": "nonpayable",
      "type": "constructor"
    },
    {
      "inputs": [],
      "name": "AccessControlBadConfirmation",
      "type": "error"
    },
    {
      "inputs": [
        {
          "internalType": "address",
          "name": "account",
          "type": "address"
        },
        {
          "internalType": "bytes32",
          "name": "neededRole",
          "type": "bytes32"
        }
      ],
      "name": "AccessControlUnauthorizedAccount",
      "type": "error"
    },
    {
      "anonymous": false,
      "inputs": [
        {
          "indexed": true,
          "internalType": "uint256",
          "name": "recallId",
          "type": "uint256"
        },
        {
          "indexed": false,
          "internalType": "string",
          "name": "farmId",
          "type": "string"
        },
        {
          "indexed": false,
          "internalType": "string",
          "name": "cropType",
          "type": "string"
        },
        {
          "indexed": false,
          "internalType": "uint256",
          "name": "affectedCount",
          "type": "uint256"
        }
      ],
      "name": "RecallInitiated",
      "type": "event"
    },
    {
      "anonymous": false,
      "inputs": [
        {
          "indexed": true,
          "internalType": "uint256",
          "name": "recallId",
          "type": "uint256"
        }
      ],
      "name": "RecallResolved",
      "type": "event"
    },
    {
      "anonymous": false,
      "inputs": [
        {
          "indexed": true,
          "internalType": "bytes32",
          "name": "role",
          "type": "bytes32"
        },
        {
          "indexed": true,
          "internalType": "bytes32",
          "name": "previousAdminRole",
          "type": "bytes32"
        },
        {
          "indexed": true,
          "internalType": "bytes32",
          "name": "newAdminRole",
          "type": "bytes32"
        }
      ],
      "name": "RoleAdminChanged",
      "type": "event"
    },
    {
      "anonymous": false,
      "inputs": [
        {
          "indexed": true,
          "internalType": "bytes32",
          "name": "role",
          "type": "bytes32"
        },
        {
          "indexed": true,
          "internalType": "address",
          "name": "account",
          "type": "address"
        },
        {
          "indexed": true,
          "internalType": "address",
          "name": "sender",
          "type": "address"
        }
      ],
      "name": "RoleGranted",
      "type": "event"
    },
    {
      "anonymous": false,
      "inputs": [
        {
          "indexed": true,
          "internalType": "bytes32",
          "name": "role",
          "type": "bytes32"
        },
        {
          "indexed": true,
          "internalType": "address",
          "name": "account",
          "type": "address"
        },
        {
          "indexed": true,
          "internalType": "address",
          "name": "sender",
          "type": "address"
        }
      ],
      "name": "RoleRevoked",
      "type": "event"
    },
    {
      "inputs": [],
      "name": "DEFAULT_ADMIN_ROLE",
      "outputs": [
        {
          "internalType": "bytes32",
          "name": "",
          "type": "bytes32"
        }
      ],
      "stateMutability": "view",
      "type": "function"
    },
    {
      "inputs": [],
      "name": "RECALL_AGENT_ROLE",
      "outputs": [
        {
          "internalType": "bytes32",
          "name": "",
          "type": "bytes32"
        }
      ],
      "stateMutability": "view",
      "type": "function"
    },
    {
      "inputs": [
        {
          "internalType": "uint256",
          "name": "recallId",
          "type": "uint256"
        }
      ],
      "name": "getAffectedSerials",
      "outputs": [
        {
          "internalType": "uint256[]",
          "name": "",
          "type": "uint256[]"
        }
      ],
      "stateMutability": "view",
      "type": "function"
    },
    {
      "inputs": [],
      "name": "getRecallCount",
      "outputs": [
        {
          "internalType": "uint256",
          "name": "",
          "type": "uint256"
        }
      ],
      "stateMutability": "view",
      "type": "function"
    },
    {
      "inputs": [
        {
          "internalType": "bytes32",
          "name": "role",
          "type": "bytes32"
        }
      ],
      "name": "getRoleAdmin",
      "outputs": [
        {
          "internalType": "bytes32",
          "name": "",
          "type": "bytes32"
        }
      ],
      "stateMutability": "view",
      "type": "function"
    },
    {
      "inputs": [
        {
          "internalType": "bytes32",
          "name": "role",
          "type": "bytes32"
        },
        {
          "internalType": "address",
          "name": "account",
          "type": "address"
        }
      ],
      "name": "grantRole",
      "outputs": [],
      "stateMutability": "nonpayable",
      "type": "function"
    },
    {
      "inputs": [
        {
          "internalType": "bytes32",
          "name": "role",
          "type": "bytes32"
        },
        {
          "internalType": "address",
          "name": "account",
          "type": "address"
        }
      ],
      "name": "hasRole",
      "outputs": [
        {
          "internalType": "bool",
          "name": "",
          "type": "bool"
        }
      ],
      "stateMutability": "view",
      "type": "function"
    },
    {
      "inputs": [
        {
          "internalType": "string",
          "name": "farmId",
          "type": "string"
        },
        {
          "internalType": "string",
          "name": "cropType",
          "type": "string"
        },
        {
          "internalType": "string",
          "name": "detectionDate",
          "type": "string"
        },
        {
          "internalType": "uint256[]",
          "name": "affectedSerials",
          "type": "uint256[]"
        },
        {
          "internalType": "string",
          "name": "reason",
          "type": "string"
        }
      ],
      "name": "initiateRecall",
      "outputs": [
        {
          "internalType": "uint256",
          "name": "",
          "type": "uint256"
        }
      ],
      "stateMutability": "nonpayable",
      "type": "function"
    },
    {
      "inputs": [
        {
          "internalType": "uint256",
          "name": "",
          "type": "uint256"
        }
      ],
      "name": "recalls",
      "outputs": [
        {
          "internalType": "string",
          "name": "farmId",
          "type": "string"
        },
        {
          "internalType": "string",
          "name": "cropType",
          "type": "string"
        },
        {
          "internalType": "string",
          "name": "detectionDate",
          "type": "string"
        },
        {
          "internalType": "uint256",
          "name": "timestamp",
          "type": "uint256"
        },
        {
          "internalType": "bool",
          "name": "resolved",
          "type": "bool"
        },
        {
          "internalType": "string",
          "name": "reason",
          "type": "string"
        }
      ],
      "stateMutability": "view",
      "type": "function"
    },
    {
      "inputs": [
        {
          "internalType": "bytes32",
          "name": "role",
          "type": "bytes32"
        },
        {
          "internalType": "address",
          "name": "callerConfirmation",
          "type": "address"
        }
      ],
      "name": "renounceRole",
      "outputs": [],
      "stateMutability": "nonpayable",
      "type": "function"
    },
    {
      "inputs": [
        {
          "internalType": "uint256",
          "name": "recallId",
          "type": "uint256"
        }
      ],
      "name": "resolveRecall",
      "outputs": [],
      "stateMutability": "nonpayable",
      "type": "function"
    },
    {
      "inputs": [
        {
          "internalType": "bytes32",
          "name": "role",
          "type": "bytes32"
        },
        {
          "internalType": "address",
          "name": "account",
          "type": "address"
        }
      ],
      "name": "revokeRole",
      "outputs": [],
      "stateMutability": "nonpayable",
      "type": "function"
    },
    {
      "inputs": [
        {
          "internalType": "bytes4",
          "name": "interfaceId",
          "type": "bytes4"
        }
      ],
      "name": "supportsInterface",
      "outputs": [
        {
          "internalType": "bool",
          "name": "",
          "type": "bool"
        }
      ],
      "stateMutability": "view",
      "type": "function"
    }
  ],
  "bytecode": "0x60806040523480156200001157600080fd5b5060405162001dae38038062001dae833981810160405281019062000037919062000266565b6200004c6000801b826200008760201b60201c565b506200007f7f050ddbee4ef36104f9a78f2dbcf9ba536ee51f9647ba3574d4b6d3ca90379b6d826200008760201b60201c565b505062000298565b60006200009b83836200018a60201b60201c565b6200017f57600160008085815260200190815260200160002060000160008473ffffffffffffffffffffffffffffffffffffffff1673ffffffffffffffffffffffffffffffffffffffff16815260200190815260200160002060006101000a81548160ff0219169083151502179055506200011b620001f460201b60201c565b73ffffffffffffffffffffffffffffffffffffffff168273ffffffffffffffffffffffffffffffffffffffff16847f2f8788117e7eff1d82e926ec794901d17c78024a50270940304540a733656f0d60405160405180910390a46001905062000184565b600090505b92915050565b600080600084815260200190815260200160002060000160008373ffffffffffffffffffffffffffffffffffffffff1673ffffffffffffffffffffffffffffffffffffffff16815260200190815260200160002060009054906101000a900460ff16905092915050565b600033905090565b600080fd5b600073ffffffffffffffffffffffffffffffffffffffff82169050919050565b60006200022e8262000201565b9050919050565b620002408162000221565b81146200024c57600080fd5b50565b600081519050620002608162000235565b92915050565b6000602082840312156200027f576200027e620001fc565b5b60006200028f848285016200024f565b91505092915050565b611b0680620002a86000396000f3fe608060405234801561001057600080fd5b50600436106100cf5760003560e01c806391d148541161008c578063bf1efc7311610066578063bf1efc7314610226578063d547741f1461025b578063e21dd3fc14610277578063e256e69814610293576100cf565b806391d14854146101ba578063a217fddf146101ea578063a92007c814610208576100cf565b806301ffc9a7146100d4578063248a9ca3146101045780632f2ff15d1461013457806336568abe146101505780634ccfa0b11461016c57806375454d921461019c575b600080fd5b6100ee60048036038101906100e99190610fbc565b6102c3565b6040516100fb9190611004565b60405180910390f35b61011e60048036038101906101199190611055565b61033d565b60405161012b9190611091565b60405180910390f35b61014e6004803603810190610149919061110a565b61035c565b005b61016a6004803603810190610165919061110a565b61037e565b005b61018660048036038101906101819190611205565b6103f9565b604051610193919061133b565b60405180910390f35b6101a46106e3565b6040516101b1919061133b565b60405180910390f35b6101d460048036038101906101cf919061110a565b6106f0565b6040516101e19190611004565b60405180910390f35b6101f261075a565b6040516101ff9190611091565b60405180910390f35b610210610761565b60405161021d9190611091565b60405180910390f35b610240600480360381019061023b9190611382565b610785565b6040516102529695949392919061143f565b60405180910390f35b6102756004803603810190610270919061110a565b6109fe565b005b610291600480360381019061028c9190611382565b610a20565b005b6102ad60048036038101906102a89190611382565b610b72565b6040516102ba919061157a565b60405180910390f35b60007f7965db0b000000000000000000000000000000000000000000000000000000007bffffffffffffffffffffffffffffffffffffffffffffffffffffffff1916827bffffffffffffffffffffffffffffffffffffffffffffffffffffffff19161480610336575061033582610c36565b5b9050919050565b6000806000838152602001908152602001600020600101549050919050565b6103658261033d565b61036e81610ca0565b6103788383610cb4565b50505050565b610386610da5565b73ffffffffffffffffffffffffffffffffffffffff168173ffffffffffffffffffffffffffffffffffffffff16146103ea576040517f6697b23200000000000000000000000000000000000000000000000000000000815260040160405180910390fd5b6103f48282610dad565b505050565b60007f050ddbee4ef36104f9a78f2dbcf9ba536ee51f9647ba3574d4b6d3ca90379b6d61042581610ca0565b60016040518060e001604052808e8e8080601f016020809104026020016040519081016040528093929190818152602001838380828437600081840152601f19601f8201169050808301925050505050505081526020018c8c8080601f016020809104026020016040519081016040528093929190818152602001838380828437600081840152601f19601f8201169050808301925050505050505081526020018a8a8080601f016020809104026020016040519081016040528093929190818152602001838380828437600081840152601f19601f820116905080830192505050505050508152602001888880806020026020016040519081016040528093929190818152602001838360200280828437600081840152601f19601f82011690508083019250505050505050815260200142815260200160001515815260200186868080601f016020809104026020016040519081016040528093929190818152602001838380828437600081840152601f19601f82011690508083019250505050505050815250908060018154018082558091505060019003906000526020600020906007020160009091909190915060008201518160000190816105ec91906117d7565b50602082015181600101908161060291906117d7565b50604082015181600201908161061891906117d7565b506060820151816003019080519060200190610635929190610ef0565b506080820151816004015560a08201518160050160006101000a81548160ff02191690831515021790555060c082015181600601908161067591906117d7565b50505060006001808054905061068b91906118d8565b9050807f71eed14e4e9f91dbb2576c1e927a078592471d15fc8df324c76653ff913080018e8e8e8e8c8c90506040516106c8959493929190611948565b60405180910390a280925050509a9950505050505050505050565b6000600180549050905090565b600080600084815260200190815260200160002060000160008373ffffffffffffffffffffffffffffffffffffffff1673ffffffffffffffffffffffffffffffffffffffff16815260200190815260200160002060009054906101000a900460ff16905092915050565b6000801b81565b7f050ddbee4ef36104f9a78f2dbcf9ba536ee51f9647ba3574d4b6d3ca90379b6d81565b6001818154811061079557600080fd5b90600052602060002090600702016000915090508060000180546107b8906115fa565b80601f01602080910402602001604051908101604052809291908181526020018280546107e4906115fa565b80156108315780601f1061080657610100808354040283529160200191610831565b820191906000526020600020905b81548152906001019060200180831161081457829003601f168201915b505050505090806001018054610846906115fa565b80601f0160208091040260200160405190810160405280929190818152602001828054610872906115fa565b80156108bf5780601f10610894576101008083540402835291602001916108bf565b820191906000526020600020905b8154815290600101906020018083116108a257829003601f168201915b5050505050908060020180546108d4906115fa565b80601f0160208091040260200160405190810160405280929190818152602001828054610900906115fa565b801561094d5780601f106109225761010080835404028352916020019161094d565b820191906000526020600020905b81548152906001019060200180831161093057829003601f168201915b5050505050908060040154908060050160009054906101000a900460ff169080600601805461097b906115fa565b80601f01602080910402602001604051908101604052809291908181526020018280546109a7906115fa565b80156109f45780601f106109c9576101008083540402835291602001916109f4565b820191906000526020600020905b8154815290600101906020018083116109d757829003601f168201915b5050505050905086565b610a078261033d565b610a1081610ca0565b610a1a8383610dad565b50505050565b7f050ddbee4ef36104f9a78f2dbcf9ba536ee51f9647ba3574d4b6d3ca90379b6d610a4a81610ca0565b6001805490508210610a91576040517f08c379a0000000000000000000000000000000000000000000000000000000008152600401610a88906119dd565b60405180910390fd5b60018281548110610aa557610aa46119fd565b5b906000526020600020906007020160050160009054906101000a900460ff1615610b04576040517f08c379a0000000000000000000000000000000000000000000000000000000008152600401610afb90611a78565b60405180910390fd5b6001808381548110610b1957610b186119fd565b5b906000526020600020906007020160050160006101000a81548160ff021916908315150217905550817fb56f545f375405a196ebc0e3ca22c5d5ed70a66216116ad1108c994e4863d54160405160405180910390a25050565b60606001805490508210610bbb576040517f08c379a0000000000000000000000000000000000000000000000000000000008152600401610bb2906119dd565b60405180910390fd5b60018281548110610bcf57610bce6119fd565b5b9060005260206000209060070201600301805480602002602001604051908101604052809291908181526020018280548015610c2a57602002820191906000526020600020905b815481526020019060010190808311610c16575b50505050509050919050565b60007f01ffc9a7000000000000000000000000000000000000000000000000000000007bffffffffffffffffffffffffffffffffffffffffffffffffffffffff1916827bffffffffffffffffffffffffffffffffffffffffffffffffffffffff1916149050919050565b610cb181610cac610da5565b610e9f565b50565b6000610cc083836106f0565b610d9a57600160008085815260200190815260200160002060000160008473ffffffffffffffffffffffffffffffffffffffff1673ffffffffffffffffffffffffffffffffffffffff16815260200190815260200160002060006101000a81548160ff021916908315150217905550610d37610da5565b73ffffffffffffffffffffffffffffffffffffffff168273ffffffffffffffffffffffffffffffffffffffff16847f2f8788117e7eff1d82e926ec794901d17c78024a50270940304540a733656f0d60405160405180910390a460019050610d9f565b600090505b92915050565b600033905090565b6000610db983836106f0565b15610e9457600080600085815260200190815260200160002060000160008473ffffffffffffffffffffffffffffffffffffffff1673ffffffffffffffffffffffffffffffffffffffff16815260200190815260200160002060006101000a81548160ff021916908315150217905550610e31610da5565b73ffffffffffffffffffffffffffffffffffffffff168273ffffffffffffffffffffffffffffffffffffffff16847ff6391f5c32d9c69d2a47ea670b442974b53935d1edc7fd64eb21e047a839171b60405160405180910390a460019050610e99565b600090505b92915050565b610ea982826106f0565b610eec5780826040517fe2517d3f000000000000000000000000000000000000000000000000000000008152600401610ee3929190611aa7565b60405180910390fd5b5050565b828054828255906000526020600020908101928215610f2c579160200282015b82811115610f2b578251825591602001919060010190610f10565b5b509050610f399190610f3d565b5090565b5b80821115610f56576000816000905550600101610f3e565b5090565b600080fd5b600080fd5b60007fffffffff0000000000000000000000000000000000000000000000000000000082169050919050565b610f9981610f64565b8114610fa457600080fd5b50565b600081359050610fb681610f90565b92915050565b600060208284031215610fd257610fd1610f5a565b5b6000610fe084828501610fa7565b91505092915050565b60008115159050919050565b610ffe81610fe9565b82525050565b60006020820190506110196000830184610ff5565b92915050565b6000819050919050565b6110328161101f565b811461103d57600080fd5b50565b60008135905061104f81611029565b92915050565b60006020828403121561106b5761106a610f5a565b5b600061107984828501611040565b91505092915050565b61108b8161101f565b82525050565b60006020820190506110a66000830184611082565b92915050565b600073ffffffffffffffffffffffffffffffffffffffff82169050919050565b60006110d7826110ac565b9050919050565b6110e7816110cc565b81146110f257600080fd5b50565b600081359050611104816110de565b92915050565b6000806040838503121561112157611120610f5a565b5b600061112f85828601611040565b9250506020611140858286016110f5565b9150509250929050565b600080fd5b600080fd5b600080fd5b60008083601f84011261116f5761116e61114a565b5b8235905067ffffffffffffffff81111561118c5761118b61114f565b5b6020830191508360018202830111156111a8576111a7611154565b5b9250929050565b60008083601f8401126111c5576111c461114a565b5b8235905067ffffffffffffffff8111156111e2576111e161114f565b5b6020830191508360208202830111156111fe576111fd611154565b5b9250929050565b60008060008060008060008060008060a08b8d03121561122857611227610f5a565b5b60008b013567ffffffffffffffff81111561124657611245610f5f565b5b6112528d828e01611159565b9a509a505060208b013567ffffffffffffffff81111561127557611274610f5f565b5b6112818d828e01611159565b985098505060408b013567ffffffffffffffff8111156112a4576112a3610f5f565b5b6112b08d828e01611159565b965096505060608b013567ffffffffffffffff8111156112d3576112d2610f5f565b5b6112df8d828e016111af565b945094505060808b013567ffffffffffffffff81111561130257611301610f5f565b5b61130e8d828e01611159565b92509250509295989b9194979a5092959850565b6000819050919050565b61133581611322565b82525050565b6000602082019050611350600083018461132c565b92915050565b61135f81611322565b811461136a57600080fd5b50565b60008135905061137c81611356565b92915050565b60006020828403121561139857611397610f5a565b5b60006113a68482850161136d565b91505092915050565b600081519050919050565b600082825260208201905092915050565b60005b838110156113e95780820151818401526020810190506113ce565b60008484015250505050565b6000601f19601f8301169050919050565b6000611411826113af565b61141b81856113ba565b935061142b8185602086016113cb565b611434816113f5565b840191505092915050565b600060c08201905081810360008301526114598189611406565b9050818103602083015261146d8188611406565b905081810360408301526114818187611406565b9050611490606083018661132c565b61149d6080830185610ff5565b81810360a08301526114af8184611406565b9050979650505050505050565b600081519050919050565b600082825260208201905092915050565b6000819050602082019050919050565b6114f181611322565b82525050565b600061150383836114e8565b60208301905092915050565b6000602082019050919050565b6000611527826114bc565b61153181856114c7565b935061153c836114d8565b8060005b8381101561156d57815161155488826114f7565b975061155f8361150f565b925050600181019050611540565b5085935050505092915050565b60006020820190508181036000830152611594818461151c565b905092915050565b7f4e487b7100000000000000000000000000000000000000000000000000000000600052604160045260246000fd5b7f4e487b7100000000000000000000000000000000000000000000000000000000600052602260045260246000fd5b6000600282049050600182168061161257607f821691505b602082108103611625576116246115cb565b5b50919050565b60008190508160005260206000209050919050565b60006020601f8301049050919050565b600082821b905092915050565b60006008830261168d7fffffffffffffffffffffffffffffffffffffffffffffffffffffffffffffffff82611650565b6116978683611650565b95508019841693508086168417925050509392505050565b6000819050919050565b60006116d46116cf6116ca84611322565b6116af565b611322565b9050919050565b6000819050919050565b6116ee836116b9565b6117026116fa826116db565b84845461165d565b825550505050565b600090565b61171761170a565b6117228184846116e5565b505050565b5b818110156117465761173b60008261170f565b600181019050611728565b5050565b601f82111561178b5761175c8161162b565b61176584611640565b81016020851015611774578190505b61178861178085611640565b830182611727565b50505b505050565b600082821c905092915050565b60006117ae60001984600802611790565b1980831691505092915050565b60006117c7838361179d565b9150826002028217905092915050565b6117e0826113af565b67ffffffffffffffff8111156117f9576117f861159c565b5b61180382546115fa565b61180e82828561174a565b600060209050601f831160018114611841576000841561182f578287015190505b61183985826117bb565b8655506118a1565b601f19841661184f8661162b565b60005b8281101561187757848901518255600182019150602085019450602081019050611852565b868310156118945784890151611890601f89168261179d565b8355505b6001600288020188555050505b505050505050565b7f4e487b7100000000000000000000000000000000000000000000000000000000600052601160045260246000fd5b60006118e382611322565b91506118ee83611322565b9250828203905081811115611906576119056118a9565b5b92915050565b82818337600083830152505050565b600061192783856113ba565b935061193483858461190c565b61193d836113f5565b840190509392505050565b6000606082019050818103600083015261196381878961191b565b9050818103602083015261197881858761191b565b9050611987604083018461132c565b9695505050505050565b7f526563616c6c4d616e616765723a20696e76616c696420726563616c6c496400600082015250565b60006119c7601f836113ba565b91506119d282611991565b602082019050919050565b600060208201905081810360008301526119f6816119ba565b9050919050565b7f4e487b7100000000000000000000000000000000000000000000000000000000600052603260045260246000fd5b7f526563616c6c4d616e616765723a20616c7265616479207265736f6c76656400600082015250565b6000611a62601f836113ba565b9150611a6d82611a2c565b602082019050919050565b60006020820190508181036000830152611a9181611a55565b9050919050565b611aa1816110cc565b82525050565b6000604082019050611abc6000830185611a98565b611ac96020830184611082565b939250505056fea264697066735822122089090a91670bd8a8be26118f14e86d57dea8434f5081cd66f4263af563c44f3864736f6c63430008140033",
  "linkReferences": {},
  "deployedLinkReferences": {}
}